:020000040800F2
:1000000000000220314200087942000879420008CD
:100010007942000879420008794200080000000097
:10002000000000000000000000000000794200080D
:100030007942000800000000794200081D250008F0
:1000400079420008794200087942000879420008A4
:100050007942000879420008794200087942000894
:100060007942000879420008794200087942000884
:100070007942000879420008794200087942000874
:100080007942000879420008794200087942000864
:100090007942000879420008794200087942000854
:1000A0007942000879420008794200087942000844
:1000B0007942000879420008794200087942000834
:1000C0007942000879420008794200087942000824
:1000D0007942000879420008794200087942000814
:1000E0007942000879420008794200087942000804
:1000F00079420008794200087942000879420008F4
:1001000079420008794200087942000879420008E3
:1001100079420008794200087942000879420008D3
:1001200079420008794200087942000879420008C3
:1001300079420008794200087942000879420008B3
:1001400079420008794200087942000879420008A3
:100150007942000879420008794200087942000893
:100160007942000879420008794200087942000883
:100170007942000879420008794200087942000873
:080180007942000879420008F1
:1001880008B50548054B1B1A062B00D808BD044BBB
:10019800002BFBD09847F9E7780400207B04002067
:1001A8000000000008B50748074B1B1A9B1003EB1B
:1001B800D373591000D108BD044A002AFBD09047D8
:1001C800F9E700BF78040020780400200000000050
:1001D80010B5064C237843B9FFF7D2FF044B13B18F
:1001E8000448AFF300800123237010BD7804002079
:1001F800000000003446000808B5074B1BB107484B
:100208000749AFF300800748036813B1064B03B1F1
:100218009847BDE80840C5E70000000034460008DC
:100228007C0400207404002000000000134B002B05
:1002380008BF114B9D46A3F5803A00218B460F4617
:100248001148124A121A04F06BF80D4B002B00D01B
:1002580098470C4B002B00D0984700200021040041
:100268000D000B4804F006F804F032F820002900CD
:1002780000F030F804F004F8000008000000000066
:10028800000000000000000078040020B8240020CE
:10029800A942000880B5B0B000AF78600C4B07F1F8
:1002A8000C011A46AD23084611461A4603F022FFF0
:1002B80007F10C03C7F8BC307868D7F8BC10AC223B
:1002C80001F038FC00231846C037BD4680BD00BF8A
:1002D8006845000880B584B002AF00F033F82223E7
:1002E800009333230193002011211122222301F0CE
:1002F8006DFB0A20002100221F2301F089FBFF204B
:10030800FF21FF22002301F0BBFB0A20002100226D
:10031800012301F099FB01F0CFFB0848502101F0BF
:10032800EDFA01F007FB78607B68002B05D10448E3
:100338004FF4805102F0FAFBF3E7F2E79D02000860
:10034800000C024080B582B000AF0820012103F004
:1003580007F84FF470433B6001233B7103237B7123
:100368000023BB710023FB713B460448194602F089
:1003780081FA002318460837BD4680BD000C0240AC
:1003880080B500AF154B154AD2F8882042F47002A8
:10039800C3F88820124B124A126842F001021A6010
:1003A8000F4B00229A600E4A0D4B1B6823F0847392
:1003B80023F4803313600A4B0A4A5A60084B084AF0
:1003C800126822F480221A60054B0022DA6000F0DD
:1003D80087F8024B4FF000629A6080BD00ED00E0A4
:1003E800003802401030002480B487B000AF0023EA
:1003F8003B6100237B610223FB600023BB60022377
:100408007B60324B9B6803F00C033B613B69042B18
:1004180007D0082B09D0002B3FD12D4B2D4A1A604D
:100428003FE02B4B2C4A1A603BE0284B5B6803F4F7
:1004380080039B0DBB60254B5B6803F03F037B602B
:10044800BB68002B0DD0244A7B68B2FBF3F21F4B2C
:10045800596847F6C0730B409B0903FB02F37B61A5
:100468000CE01C4A7B68B2FBF3F2184B596847F65C
:10047800C0730B409B0903FB02F37B61134B5B6862
:1004880003F440331B0C01335B00FB607A69FB68A3
:10049800B2FBF3F20E4B1A6003E00D4B0D4A1A60E3
:1004A80000BF0A4B9B6803F0F0031B090B4AD35C9F
:1004B800DBB23B61064B1A683B69DA40044B1A60B1
:1004C8001C37BD465DF8047B704700BF003802400A
:1004D800040000200024F40000127A000800002024
:1004E80080B483B000AF00237B6000233B60354BB2
:1004F800344A126842F480321A60324B1B6803F4A3
:1005080000333B607B6801337B603B68002B03D181
:100518007B68B3F5A04FF0D12A4B1B6803F4003376
:10052800002B02D001233B6001E000233B603B68C5
:10053800012B42D1234B234A126C42F080521A6499
:10054800214B214A126842F440421A601D4B1D4A51
:1005580092689A601B4B1B4A926842F440429A6028
:10056800184B184A926842F4A0529A60154B174AE1
:100578005A60144B134A126842F080721A6000BF26
:10058800104B1B6803F00073002BF9D0104B40F29E
:1005980005621A600B4B0B4A926822F003029A60BC
:1005A800084B084A926842F002029A6000BF054B65
:1005B8009B6803F00C03082BF9D10C37BD465DF896
:1005C800047B704700380240007000400854400720
:1005D800003C024080B483B000AF78600023184626
:1005E8000C37BD465DF8047B704700BF80B483B00C
:1005F80000AF78603960002318460C37BD465DF8B7
:10060800047B704780B483B000AF7860012318463C
:100618000C37BD465DF8047B704700BF80B485B0D9
:1006280000AFF860B9607A60002318461437BD46F9
:100638005DF8047B704700BF80B485B000AFF860F8
:10064800B9607A604FF0FF3318461437BD465DF83D
:10065800047B704780B485B000AFF860B9607A60F9
:10066800002318461437BD465DF8047B704700BF69
:1006780080B485B000AF78603960104B1B68002BE0
:1006880002D10E4B0E4A1A600C4B1B68FB600B4BD9
:100698001A683B681A446B469A4202D94FF0FF33F6
:1006A80006E0064B1A683B681A44044B1A60FB685C
:1006B80018461437BD465DF8047B70479404002043
:1006C800B8240020644600080000002074040020BC
:1006D80078040020B824002080B48BB000AF786084
:1006E8007B681B78FB83FB8B03F00F03FB83FB8B7F
:1006F8009B00FB837B68BB61FB8BBA691344BB61BE
:10070800BB697B61BB693B617B691B7B1B09DBB2F6
:10071800FB81FB899B00FB817B689B78BB81BB8944
:100728001B02BB817B68DB781A46BB891344BB81FB
:10073800BA89FB8BD31A9AB2FB89D31A7B817B685F
:100748001B7B1B023B627B685B7B3A6A13443B6200
:100758007B689B7B1B023A6A13443B627B68DB7BAA
:100768003A6A13443B627B681B7C1B023A6A134457
:100778003B627B685B7C3A6A13443B627B689B7C88
:100788001B023A6A13443B627B68DB7C3A6A134477
:100798003B627B685B7A3A6A13443B62FA897B89DD
:1007A80013443A6A13443B62FA897B891344BB6158
:1007B80000237B621CE03A697B6A13441B781B02A6
:1007C8003A6A13443B627B6A01337B627A6ABB698B
:1007D8009A4207D23A697B6A13441B783A6A1344EF
:1007E8003B6202E07B6A013B7B627B6A01337B628E
:1007F8007A6ABB699A42DED309E03B6A1B0CBB618B
:100808003B6A9BB23B623A6ABB6913443B623B6AF0
:10081800B3F5803FF1D23B6ADB439BB23B623B6A54
:100828009BB218462C37BD465DF8047B704700BF65
:1008380090B5ADF2346D00AF07F10C042060381D9F
:1008480002601A4607F10B03197007F108031A80B2
:1008580007F10C031B68C7F82C36D7F82C360E3373
:10086800C7F82C36D7F82C36C7F82036D7F82036F4
:100878001B7887F81F3697F81F3603F00F0387F8A1
:100888001F3697F81F369B0087F81F36D7F8203693
:10089800C7F82C3697F81F36D7F82C261344C7F814
:1008A8002C36D7F82C36C7F81836D7F820369B7868
:1008B800A7F81636B7F816361B02A7F81636D7F873
:1008C8002036DB781A46B7F816361344A7F81636DA
:1008D80097F81F369BB2B7F81626D31AA7F816361C
:1008E800D7F818361B7B1B0987F81F3697F81F3671
:1008F8009B0087F81F3697F81F369BB2B7F8162665
:10090800D31AA7F81636B7F81636A7F8143607F12B
:100918001003C7F8103607F10C031B689A79D7F84B
:1009280010361A7007F10C031B68DA79D7F81036FD
:100938005A7007F10C031B681A7AD7F810369A70A8
:1009480007F10C031B685A7AD7F81036DA7007F1EA
:100958000C031B689A7AD7F810361A7107F10C0342
:100968001B68DA7AD7F810365A71C24B1A78D7F85A
:1009780010369A71BF4B5A78D7F81036DA71BD4BDA
:100988009A78D7F810361A72BA4BDA78D7F8103640
:100998005A72B84B1A79D7F810369A72B54B5A79F9
:1009A800D7F81036DA72D7F8103608221A73D7F843
:1009B800103600225A73D7F81036C7F82C36D7F8F5
:1009C8002C360E33C7F82C36D7F82C36C7F80C3629
:1009D800D7F80C3645221A70D7F80C3600225A7010
:1009E80007F10B031B78122B07D1D7F80C3600221E
:1009F8009A70D7F80C362822DA7007F10B031B78A7
:100A0800102B07D1D7F80C3600229A70D7F80C367D
:100A18002822DA7007F10B031B78112B07D1D7F8BE
:100A28000C3600229A70D7F80C362822DA7007F1B3
:100A38000B031B78182B1BD12823A7F8163607F1B0
:100A48000803B7F816261B881344A7F81636B7F814
:100A58001636DAB2D7F80C36DA70B7F816361B0A3B
:100A6800A7F81636B7F81636DAB2D7F80C369A70F1
:100A7800D7F80C3600221A71D7F820365B790A337A
:100A8800DAB2D7F80C365A71D7F80C3640229A7178
:100A9800D7F80C360022DA71D7F80C3640221A72D1
:100AA800D7F80C3606225A72D7F80C3600229A72FA
:100AB800D7F80C360022DA726F4B1A78D7F80C3652
:100AC8001A736D4B5A78D7F80C365A736A4B9A7862
:100AD800D7F80C369A73684BDA78D7F80C36DA738D
:100AE800D7F820361A7BD7F80C361A74D7F8203680
:100AF8005A7BD7F80C365A74D7F820369A7BD7F831
:100B08000C369A74D7F82036DA7BD7F80C36DA74B4
:100B1800D7F80C0600F09EFA0346A7F81636B7F881
:100B28001636DAB2D7F80C36DA72B7F816361B0A68
:100B3800A7F81636B7F81636DAB2D7F80C369A721E
:100B4800D7F80C36C7F82C36D7F82C361433C7F834
:100B58002C36D7F82C36C7F80836D7F818369A78CE
:100B6800D7F808361A70D7F81836DA78D7F808366A
:100B78005A70D7F818361A78D7F808369A70D7F80E
:100B880018365A78D7F80836DA70D7F81836187938
:100B9800D7F818365979D7F818369A79D7F8183611
:100BA800DB7900F02FFAC7F82C0607F10B031B7846
:100BB800122B07D1D7F82C360133C7F82C36162359
:100BC800C7F8243607F10B031B78102B24D1D7F86C
:100BD80018361879D7F818365979D7F818369A790F
:100BE800D7F81836DB7900F00DFAC7F82C06D7F8D5
:100BF8002C360133C7F82C36D7F81836187AD7F8B8
:100C08001836597AD7F818369A7AD7F81836DB7A18
:100C180000F0F8F9C7F8240607F10B031B78112B2D
:100C28002CD1D7F818361879D7F818365979D7F853
:100C380018369A79D7F81836DB7900F0E3F9C7F84F
:100C48002C06B7F81436D7F82C261344C7F82C36D8
:100C5800D7F81836187AD7F81836597AD7F81836D0
:100C68009A7AD7F81836DB7A00F0CCF9C7F8240658
:100C780004E000BF180000202800002007F10B0343
:100C88001B78182B26D1D7F818361879D7F81836C4
:100C98005979D7F818369A79D7F81836DB7900F0E9
:100CA800B1F9C7F82C06B7F81436D7F82C26134430
:100CB800C7F82C36D7F81836187AD7F81836597A6C
:100CC800D7F818369A7AD7F81836DB7A00F09AF9F6
:100CD800C7F82406D7F82C36DAB2D7F80836DA720D
:100CE800D7F82C361B0ADAB2D7F808369A72D7F832
:100CF8002C361B0CDAB2D7F808365A72D7F82C36CD
:100D08001B0EDAB2D7F808361A72D7F82436DAB2D8
:100D1800D7F80836DA71D7F824361B0ADAB2D7F8CA
:100D280008369A71D7F824361B0CDAB2D7F8083689
:100D38005A71D7F824361B0EDAB2D7F808361A716A
:100D4800D7F8083650221A73D7F8083607F10B027D
:100D580012785A73D7F808367222DA73D7F8083639
:100D680010229A73D7F8083600221A74D7F8083672
:100D780000225A74D7F8083600229A74D7F8083631
:100D88000022DA74D7F80C369B78A7F81636B7F82D
:100D980016361B02A7F81636D7F80C36DB781A4633
:100DA800B7F816361344A7F81636B7F81636143BB4
:100DB800A7F81636B7F81636143BA7F81636D7F83C
:100DC8000836C7F82C36D7F82C361433C7F82C3623
:100DD800D7F82C36C7F8043607F10B031B78182B05
:100DE8001CD10023A7F82A3610E0B7F82A36D7F81E
:100DF80004261344B7F82A26391D09680A441278CC
:100E08001A70B7F82A360133A7F82A3607F108030B
:100E1800B7F82A261B889A42E7D303E007F10803AC
:100E280000221A8007F108031B883633A7F8023618
:100E3800D7F80C06FFF750FC0346A7F81636B7F8A4
:100E48001636DAB2D7F808365A74B7F816361B0AC7
:100E5800A7F81636B7F81636DAB2D7F808361A747D
:100E680007F11003B7F80226A3F8EE2507F11003DF
:100E7800184601F051F90023184607F23467BD46B9
:100E880090BD00BF80B588B000AF78607B68FB611B
:100E9800FB690E33FB61FB69BB61BB691033184604
:100EA8005549042200F006FD0346002B02D04FF0FE
:100EB800FF339DE0BB691B78FB75FB7D03F00F03D7
:100EC800FB75FB7D9B00FB75BB69FB61FB7DFA69CC
:100ED8001344FB61FB693B613B699B78FB81FB89A0
:100EE8001B02FB813B69DB781A46FB891344FB81B3
:100EF800FA89424B53F82230002B02D16FF00103DC
:100F080076E03B695B7B013B172B70D801A252F856
:100F180023F000BFF70F00087D0F0008F70F000847
:100F2800F70F0008F70F0008F70F0008F70F000881
:100F3800F70F0008F70F0008F70F0008F70F000871
:100F4800F70F0008F70F0008F70F0008F70F000861
:100F5800A30F0008DF0F0008F70F0008F70F0008BD
:100F6800F70F0008F70F0008F70F0008F70F000841
:100F7800C70F0008FA89224B53F82230012B0BD1F6
:100F8800FA891F4B032143F82210786812210022A6
:100F98000023FFF74DFC2AE029E0FA89184B53F8A3
:100FA8002230022B05D1FA89154B032143F8221070
:100FB8001DE0FA89124B012143F8221017E0FA8943
:100FC8000E4B53F8223078689847FA890C4B012168
:100FD80043F822100BE07868102100220023FFF765
:100FE80027FCFA89064B012143F8221000BF002391
:100FF80018462037BD4680BD28000020A8140020D0
:10100800A804002080B485B000AFF871B9717A7176
:101018003B71FB79FB60FB681B06BB60BB79FB601F
:10102800FB681B04BA681344BB607B79FB60FB68F0
:101038001B02BA681344BB603B79FB60BA68FB6863
:101048001344BB60BB6818461437BD465DF8047B83
:10105800704700BF80B489B000AF78607B687B615F
:101068007B681B783B613B6903F00F033B613B697D
:101078005B003B610023FB610023FB600023BB6135
:1010880017E0BB695B007A6913441B881B029BB29B
:10109800FA691344FB61BB695B007A6913441B88D6
:1010A8001B0A9BB2DBB2FA691344FB61BB690133CB
:1010B800BB61BA693B699A42E3D307E0FB699BB21B
:1010C800FB60FB691A0CFB681344FB61FB69B3F511
:1010D800803FF3D2FB697B817B89DB439BB2184657
:1010E8002437BD465DF8047B704700BF80B48BB0E1
:1010F80000AF78607B68FB617B681B7803F00F03A7
:10110800FB76FB7E9B00FB76FB7EFA691344FB6152
:10111800FB697B617B689B787B827B8A1B027B8275
:101128007B68DB781A467B8A13447B827B8A143B74
:101138007B827B8A5B089BB2FB6000237B62002377
:10114800FB6100233B6217E03B6A5B007A6913444A
:101158001B881B029BB27A6A13447B623B6A5B0062
:101168007A6913441B881B0A9BB2DBB27A6A134460
:101178007B623B6A01333B623A6AFB689A42E3D37B
:1011880007E07B6A9BB2FB617B6A1A0CFB6913441C
:101198007B627B6AB3F5803FF3D27B6A7B817B8974
:1011A800DB439BB218462C37BD465DF8047B70477D
:1011B80080B5ADF5C66D00AF3B1D18603B1D1B68C3
:1011C800C7F82836D7F828360E33C7F82836D7F8A0
:1011D8002836C7F82436D7F824361B7887F82336FC
:1011E80097F8233603F00F0387F8233697F823364A
:1011F8009B0087F82336D7F82436C7F8283697F89F
:101208002336D7F828261344C7F82836D7F82836BF
:10121800C7F81C36D7F81C361B78082B02D04FF0BD
:10122800FF3392E1D7F81C365B78002B02D06FF0C1
:1012380001038AE107F10C03C7F818363B1D1B6848
:101248009A79D7F818361A703B1D1B68DA79D7F8DF
:1012580018365A703B1D1B681A7AD7F818369A70D8
:101268003B1D1B685A7AD7F81836DA703B1D1B6885
:101278009A7AD7F818361A713B1D1B68DA7AD7F8AC
:1012880018365A71B34B1A78D7F818369A71B14B89
:101298005A78D7F81836DA71AE4B9A78D7F81836E4
:1012A8001A72AC4BDA78D7F818365A72A94B1A79F1
:1012B800D7F818369A72A74B5A79D7F81836DA72CF
:1012C800D7F8183608221A73D7F8183600225A7336
:1012D800D7F81836C7F82836D7F828360E33C7F89F
:1012E8002836D7F82836C7F81436D7F814364522E2
:1012F8001A70D7F8143600225A70D7F824369A781C
:10130800D7F814369A70D7F82436DA78D7F814361E
:10131800DA70D7F8143600221A71D7F824365B79B8
:101328000A33DAB2D7F814365A71D7F8143640228D
:101338009A71D7F814360022DA71D7F81436402299
:101348001A72D7F8143601225A72D7F814360022C6
:101358009A72D7F814360022DA727F4B1A78D7F8C7
:1013680014361A737C4B5A78D7F814365A737A4B5A
:101378009A78D7F814369A73774BDA78D7F8143600
:10138800DA73D7F824361A7BD7F814361A74D7F8D4
:1013980024365A7BD7F814365A74D7F824369A7BF1
:1013A800D7F814369A74D7F82436DA7BD7F8143677
:1013B800DA74D7F81406FFF74DFE0346A7F812367D
:1013C800B7F81236DAB2D7F81436DA72B7F8123636
:1013D8001B0AA7F81236B7F81236DAB2D7F814365D
:1013E8009A72D7F81436C7F82836D7F8283614333F
:1013F800C7F82836D7F82836C7F80C36D7F80C3689
:1014080000221A70D7F80C3600225A70D7F80C361A
:1014180000229A70D7F80C360022DA70D7F81C36FA
:101428001A79D7F80C361A71D7F81C365A79D7F8C2
:101438000C365A71D7F81C369A79D7F80C369A7147
:10144800D7F81C36DA79D7F80C36DA71D7F81436AB
:101458009B78A7F81236B7F812361B02A7F812368F
:10146800D7F81436DB781A46B7F812361344A7F8BB
:101478001236B7F81236143BA7F81236B7F81236F8
:10148800083BA7F81236B7F81236A7F80A36D7F885
:101498000C36C7F82836D7F828360833C7F8283660
:1014A800D7F82836C7F80436D7F81C36C7F82836D0
:1014B800D7F828360833C7F82836D7F82836C7F8B3
:1014C80000360023A7F82E3610E0B7F82E36D7F8E6
:1014D80004261344B7F82E26D7F800160A441278C3
:1014E8001A70B7F82E360133A7F82E36B7F82E261D
:1014F800B7F80A369A42E8D3B7F812362A33A7F86B
:10150800FE35D7F81406FFF7F1FD0346A7F81236A3
:10151800B7F81236DAB2D7F80C36DA70B7F81236EE
:101528001B0AA7F81236B7F81236DAB2D7F80C3613
:101538009A7007F10C03B7F8FE25A3F8EE2507F11A
:101548000C03184600F0E8FD0023184607F5C667A7
:10155800BD4680BD180000202800002080B586B058
:1015680000AF78607B687B617B690E337B617B6948
:101578003B613B691B78FB73FB7B1B09FB73FB7BA4
:1015880003F00F03FB73FB7B042B02D04FF0FF33F8
:1015980012E03B695B7A012B02D0062B04D007E0EE
:1015A8007868FFF705FE06E07868FFF76BFC02E055
:1015B8006FF0010300E0002318461837BD4680BDD0
:1015C80080B5ADF5C26D00AF3B1D18603B1D1B68B3
:1015D800C7F80C36D7F80C360E33C7F80C36D7F8E0
:1015E8000C36C7F80836D7F808361B78002B04D114
:1015F800D7F808365B78012B02D04FF0FF332FE184
:10160800D7F808369B78082B04D1D7F80836DB784A
:10161800002B02D06FF0010322E1D7F808361B79BE
:10162800062B02D06FF002031AE1D7F808365B796F
:10163800042B02D06FF0030312E1D7F808369B7928
:10164800002B04D1D7F80836DB79012B02D06FF0D4
:10165800040305E1D7F808361833844819460422EC
:1016680000F028F90346002B02D06FF00503F7E0DD
:1016780007F10C03C7F804363B1D1B689A79D7F8A5
:1016880004361A703B1D1B68DA79D7F804365A708D
:101698003B1D1B681A7AD7F804369A703B1D1B68E5
:1016A8005A7AD7F80436DA703B1D1B689A7AD7F84D
:1016B80004361A713B1D1B68DA7AD7F804365A715A
:1016C8006B4B1A78D7F804369A71694B5A78D7F861
:1016D8000436DA71664B9A78D7F804361A72644B76
:1016E800DA78D7F804365A72614B1A79D7F8043683
:1016F8009A725F4B5A79D7F80436DA72D7F80436FB
:1017080008221A73D7F8043606225A73D7F8043613
:10171800C7F80C36D7F80C360E33C7F80C36D7F89E
:101728000C36C7F80036D7F8003600221A70D7F8FA
:10173800003601225A70D7F8003608229A70D7F876
:1017480000360022DA70D7F8003606221A71D7F868
:10175800003604225A71D7F8003600229A71D7F859
:1017680000360222DA71424B1A78D7F800361A721C
:101778003F4B5A78D7F800365A723D4B9A78D7F8CB
:1017880000369A723A4BDA78D7F80036DA72384B64
:101798001A79D7F800361A73354B5A79D7F80036C4
:1017A8005A73324B1A78D7F800369A732F4B5A78F7
:1017B800D7F80036DA732D4B9A78D7F800361A74B2
:1017C8002A4BDA78D7F800365A74D7F808361A7AD6
:1017D800D7F800369A74D7F808365A7AD7F8003608
:1017E800DA74D7F808369A7AD7F800361A75D7F81F
:1017F8000836DA7AD7F800365A75D7F808361A7BD9
:10180800D7F800369A75D7F808365A7BD7F80036D5
:10181800DA75D7F808369A7BD7F800361A76D7F8EB
:101828000836DA7BD7F800365A76D7F808361A7CA5
:10183800D7F800369A76D7F808365A7CD7F80036A3
:10184800DA762A23A7F8FE3507F10C03B7F8FE2548
:10185800A3F8EE2507F10C03184600F05DFC002301
:10186800184607F5C267BD4680BD00BF28000020A6
:101878001800002080B483B000AF78607B681B7BC1
:10188800082B05D17B685B7B062B01D106230BE077
:101898007B681B7B082B05D17B685B7B002B01D108
:1018A800002301E04FF0FF3318460C37BD465DF8C2
:1018B800047B704780B487B000AFF860B9607A6085
:1018C80000237B610FE07B69FA6813441A787B690F
:1018D800B9680B441B789A4202D04FF0FF3307E0F7
:1018E8007B6901337B617A697B689A42EBDB002371
:1018F80018461C37BD465DF8047B704780B483B03A
:1019080000AF78600B467B807A88084B796843F88B
:1019180022107A88064B012143F82210002318462A
:101928000C37BD465DF8047B704700BFA814002043
:10193800A804002080B5ADF5C06D00AF3B1D18466A
:1019480000F034FC034687F8FF3597F9FF35002B84
:1019580002D097F9FF352FE03B1DC7F8F835D7F8C7
:10196800F835184819460622FFF7A4FF0346002B4E
:1019780009D0D7F8F835144819460622FFF79AFF18
:101988000346002B17D1D7F8F805FFF773FFC7F800
:10199800F405D7F8F435002B06D0062B09D1D7F873
:1019A800F805FFF70DFE06E0D7F8F805FFF7D6FDB6
:1019B80001E0002300E00023184607F5C067BD4694
:1019C80080BD00BF200000201800002080B483B034
:1019D80000AFF871B9717A713B710C4BFA791A70D2
:1019E8000A4BBA795A70094B7A799A70074B3A7947
:1019F800DA70064B3A7C1A71044B3A7D5A7100230F
:101A080018460C37BD465DF8047B70471800002067
:101A180080B483B000AFF871B9717A713B71094B2A
:101A2800FA791A70074BBA795A70064B7A799A7014
:101A3800044B3A79DA70002318460C37BD465DF836
:101A4800047B70472800002080B483B000AFF87191
:101A5800B9717A713B71094BFA791A70074BBA79E7
:101A68005A70064B7A799A70044B3A79DA700023E7
:101A780018460C37BD465DF8047B704730000020DF
:101A880080B483B000AFF871B9717A713B71094BBA
:101A9800FA791A70074BBA795A70064B7A799A70A4
:101AA800044B3A79DA70002318460C37BD465DF8C6
:101AB800047B70472C00002080B582B000AF002363
:101AC8007B600CE00C4B7A68002143F822100B4B2A
:101AD8007A68002143F822107B6801337B607B68B9
:101AE800B3F5806FEED3064800F0A6FA0023184637
:101AF8000837BD4680BD00BFA8140020A8040020F8
:101B08001800002080B400AF00231846BD465DF8D9
:101B1800047B704780B400AF00231846BD465DF8CB
:101B2800047B704780B400AF00231846BD465DF8BB
:101B3800047B704780B584B000AFF860B960134685
:101B4800FB80FB88F8681821BA68FEF771FE00234D
:101B580018461037BD4680BD80B588B000AF4FF439
:101B68008050012101F074FC0023BB814FF4827383
:101B7800FB8100233B8200237B820023BB824FF43E
:101B88000073FB8210233B8300237B830723BB83E3
:101B980007F10C033948194601F0C4FE1120012150
:101BA80001F0DEFB4FF48040012101F051FC344884
:101BB8000521052200F0CCFF31480621052200F05E
:101BC800C7FF2F480721052200F0C2FF02233B72FE
:101BD80002237B720023BB720123FB7220237B60EC
:101BE8003B1D2748194600F045FE40237B603B1DFE
:101BF8002348194600F03EFE80237B603B1D2048A9
:101C0800194600F037FE10237B6001233B72012345
:101C1800FB723B1D1A48194600F02CFE08237B6016
:101C280001233B720123FB723B1D1548194600F046
:101C380021FE1348082100F045FF642000F02EFC27
:101C48000F48082100F030FF642000F027FC08232B
:101C58007B603B1D0B48194600F00CFE0948082123
:101C680000F022FF0648102100F01EFF0348012162
:101C780001F0C8FF2037BD4680BD00BF00300140DD
:101C8800000002400010024080B584B000AF034657
:101C9800FB711148022102F0ABF90346012B03D076
:101CA8000E487B2100F0E8FAFB799BB20A481946F6
:101CB80002F0E2F800BF0848012102F099F9034652
:101CC800002BF8D0044802F0C9F80346FB73FB7BED
:101CD80018461037BD4680BD003001401846000840
:101CE80080B500AF0248102100F0ECFE80BD00BFB7
:101CF8000000024080B500AF0248102100F0D4FE79
:101D080080BD00BF0000024080B584B000AF02462D
:101D18000B46FA71BB71FFF7E3FFBB7903F01F03B2
:101D2800DAB2FB791343DBB2DBB21846FFF7ACFF3C
:101D3800FF20FFF7A9FF0346FB73BB795BB2002BBB
:101D480004DAFF20FFF7A0FF0346FB73FFF7D2FF7B
:101D5800FB7B18461037BD4680BD00BF80B582B0FA
:101D680000AF13460246FA710A46BA717B71FFF753
:101D7800B7FFBB7903F01F03DAB2FB791343DBB279
:101D8800DBB21846FFF780FF7B791846FFF77CFF28
:101D9800FFF7B0FF0837BD4680BD00BF90B583B0E0
:101DA80000AF78600B467B80FFF79AFF3A20FFF779
:101DB8006BFF07E07C68631C7B60FF20FFF764FF14
:101DC800034623707B885A1E7A80002BF2D1FFF7D6
:101DD80091FF0C37BD4690BD80B582B000AF7860EA
:101DE8000B467B80FFF77CFF7A20FFF74DFF06E06C
:101DF8007B685A1C7A601B781846FFF745FF7B887A
:101E08005A1E7A80002BF3D1FFF774FF0837BD46BE
:101E180080BD00BF80B584B000AF0346FB71FB797D
:101E280003F01F031A2B1CDCFB7903F060020E4B36
:101E38001B789A4215D0FB7903F060035B11FB73A2
:101E4800A0201F210322FFF789FFFB7B80201F2191
:101E58001A46FFF783FFFB7903F06003DAB2024BFF
:101E68001A701037BD4680BD9804002080B582B036
:101E780000AF0346FB71FB791846FFF7CBFFFB79F0
:101E880000201946FFF740FF034618460837BD46AD
:101E980080BD00BF80B582B000AF02460B46FA7124
:101EA800BB71FB791846FFF7B5FFFA79BB7940207B
:101EB80011461A46FFF752FF0837BD4680BD00BFDE
:101EC80080B582B000AF02460B46FA71BB80FB7941
:101ED8001846FFF79FFFBB88DBB2FA79402011460E
:101EE8001A46FFF73BFFFB790133DAB2BB881B0ABE
:101EF8009BB2DBB2402011461A46FFF72FFF083786
:101F0800BD4680BD80B582B000AF02460B46FA716F
:101F1800BB71FB791846FFF77DFFFA79BB79A020E2
:101F280011461A46FFF71AFF0837BD4680BD00BFA5
:101F380080B582B000AF02460B46FA71BB71FB79DF
:101F48001846FFF767FFFA79BB79802011461A46D1
:101F5800FFF704FF0837BD4680BD00BF80B500AF5E
:101F6800FFF7BEFEFF20FFF78FFEFFF7C3FE024B11
:101F780000221A7080BD00BF9804002080B582B08E
:101F880000AF02460B46FA71BB80FB79D420194694
:101F9800FFF780FFBB88D6201946FFF791FF0B207B
:101FA80000F04AFA00BFEA20FFF760FF034603F09B
:101FB8000103002BF7D10837BD4680BD80B500AFBF
:101FC80000BF1D20FFF752FF034603F00103DBB2F9
:101FD800002BF6D080BD00BF80B582B000AF78601E
:101FE8007B681B78E4201946FFF754FF7B680133B0
:101FF8001B78E5201946FFF74DFF7B6802331B78F5
:10200800E2201946FFF746FF7B6803331B78E3207D
:102018001946FFF73FFF7B6804331B78E020194619
:10202800FFF738FF7B6805331B78E1201946FFF777
:1020380031FF0837BD4680BD80B582B000AF7860FB
:10204800FFF78AFDFFF7BAFFFFF788FF0820002196
:10205800FFF736FF0A2041F2B771FFF731FF0C2076
:102068000021FFF72DFF2B4B00221A80042041F29C
:10207800B771FFF725FF062041F2B771FFF720FF80
:10208800022041F2B771FFF71BFFC0200D21FFF7B7
:1020980001FFC1200021FFF7FDFEC2203321FFF719
:1020A800F9FECA2040F2EE51FFF70AFFC4201521BD
:1020B800FFF7F0FEC6201221FFF7ECFEC720002133
:1020C800FFF7E8FE7868FFF787FF00204FF480717C
:1020D800FFF754FF10204FF48071FFF74FFF1420D3
:1020E80040F27641FFF74AFF1F200421FFF720FF47
:1020F8001F208021FFF71CFF1F208021FFF702FF10
:10210800642000F0CBF900235BB218460837BD46BF
:1021180080BD00BF9A04002080B582B000AF78600F
:102128000FE01C20FFF7A2FE034603F00203002B7A
:1021380007D01F208021FFF7FBFE1F208021FFF71B
:10214800E1FE1F20FFF792FE034603F00803002B71
:10215800E7D1022041F2B771FFF7B2FE042041F245
:10216800B771FFF7ADFE7B68B3F8EE3503F5BD53E5
:1021780017339BB206201946FFF7A2FE7A200021EA
:102188000022FFF7EBFD7A687B68B3F8EE3510465E
:102198001946FFF721FE1F200821FFF7C9FE00237B
:1021A8005BB218460837BD4680BD00BF80B584B015
:1021B80000AF78603920FFF759FE0346002B01D1A4
:1021C800FA2351E02B4B1B8800201946FFF778FEB5
:1021D80028480221FFF7E2FD07F10C031846022107
:1021E800FFF7DCFD07F10A0318460221FFF7D6FDC9
:1021F8007B8903F08003002B11D0BA8940F2EE539B
:102208009A420CD8BB89043B9BB2BB817A68BB89D4
:1022180010461946FFF7C2FD0023FB7301E0F123C6
:10222800FB73144B1B88013B002B06DB114B1B88EF
:102238005A1E41F2B7739A4205DD0C2041F2B7717C
:10224800FFF73EFE07E00B4B1B88013B9BB20C20BF
:102258001946FFF735FE1E204021FFF769FEBA89AF
:102268007B68A3F8EE25FB7B5BB218461037BD46AA
:1022780080BD00BF9A04002080B483B000AF7860AE
:102288003960FEE780B400AF044BDB6803F4E06319
:102298001B0A1846BD465DF8047B704700ED00E058
:1022A80080B483B000AF03463960FB7197F90730FB
:1022B800002B0BDA0D49FB7903F00F03043B3A6856
:1022C800D2B21201D2B20B441A7609E0084997F942
:1022D80007303A68D2B21201D2B20B4483F8002315
:1022E8000C37BD465DF8047B704700BF00ED00E089
:1022F80000E100E080B489B000AFF860B9607A60AE
:10230800FB6803F00703FB61FB69C3F10703042BB8
:1023180028BF0423BB61FB690433062B02D9FB6980
:10232800033B00E000237B61BB69012202FA03F34F
:10233800013B1A46BB681A407B699A407B690121B8
:1023480001FA03F3013B19467B680B401343184617
:102358002437BD465DF8047B704700BF80B582B066
:1023680000AF78607B68B3F1807F01D3012311E06F
:102378000A4B7A6822F07F42013A5A604FF0FF30E8
:102388000F21FFF78DFF054B00229A60034B0722B0
:102398001A60002318460837BD4680BD10E000E0EB
:1023A80080B584B000AF7860174B7A681A6000BFB8
:1023B800164B1A6816497B68B1FBF3F3B2FBF3F3CB
:1023C8001846FFF7CBFF0346002BF1D1FF233B73E1
:1023D80000237B730023BB730123FB7307F10C03FA
:1023E800184600F0E5F8FFF74DFF034618460121AF
:1023F8000022FFF77FFF03464FF0FF301946FFF733
:102408004FFF1037BD4680BDA00400200400002007
:1024180040420F0080B400AF064B1B68002B04D06D
:10242800044B1B685A1E034B1A60BD465DF8047BBB
:10243800704700BF9C04002080B483B000AF786070
:10244800084B1B687A68B2FBF3F2074B1A6000BFAF
:10245800054B1B68002BFBD10C37BD465DF8047B90
:10246800704700BFA00400209C04002080B400AF87
:10247800084B1B684FF47A72B2FBF3F2064B1A60F2
:1024880000BF054B1B68002BFBD1BD465DF8047BE4
:10249800704700BFA00400209C04002080B582B0D3
:1024A80000AF786001E0FFF7E1FF7B685A1E7A60B1
:1024B800002BF8D10837BD4680BD00BF80B400AFFF
:1024C800034B1B681846BD465DF8047B704700BF88
:1024D800B424002080B485B000AF78600B4B1A6834
:1024E8007B68D31AFB60FB68002B04DAFB6803F1F6
:1024F8000043013BFB60FB68054A126802FB03F3DB
:1025080018461437BD465DF8047B7047B424002094
:10251800A004002080B500AFFFF77CFF164B1B68B6
:102528005A1C154B1A60154B1A68154B1B681A4430
:10253800124B1A60114B1B68B3F57A7F1AD9114BED
:102548001B685A1C0F4B1A600C4B1B68A3F57A7258
:102558000A4B1A600B4B1B68B3F57A7F0AD90A4BF2
:102568001B685A1C084B1A60064B1B68A3F57A7245
:10257800044B1A6080BD00BFB4240020A8240020AA
:10258800A0040020B0240020AC24002080B483B034
:1025980000AF7860054A7B6843F0BF6343F40033BB
:1025A800D3600C37BD465DF8047B704700ED00E052
:1025B80080B485B000AF78600023FB730023BB7341
:1025C8000F237B737B68DB78002B37D0254BDB68C8
:1025D800DB4303F4E0631B0AFB73FB7BC3F10403D7
:1025E800BB737A7BFB7B42FA03F37B737B685B7874
:1025F8001A46BB7B02FA03F3FB737B689A787B7BF2
:102608001340DAB2FB7B1343FB73FB7B1B01FB73A9
:10261800154A7B681B781344FA7B83F80023124B16
:102628007A6812785209D2B27968097801F01F01E4
:10263800012000FA01F143F822100EE00A4B7A68F3
:1026480012785209D2B27968097801F01F01012085
:1026580000FA01F1203243F822101437BD465DF824
:10266800047B704700ED00E000E100E080B483B037
:1026780000AF78603960074A3B6823F0604323F075
:102688007F0379680B4393600C37BD465DF8047B84
:10269800704700BF00ED00E080B483B000AF024691
:1026A8000B46FA71BB71BB79002B06D0094B094A5E
:1026B8001169FA790A431A6106E0064B054A11695D
:1026C800FA79D2430A401A610C37BD465DF8047B9B
:1026D800704700BF00ED00E080B483B000AF7860C1
:1026E8007B68042B06D1094B084A126842F00402A1
:1026F8001A6005E0054B054A126822F004021A60C8
:102708000C37BD465DF8047B704700BF10E000E061
:1027180080B582B000AF78607A684B4B9A4208D196
:102728000120012100F0B2FE0120002100F0AEFEE0
:1027380086E07A68454B9A4208D10220012100F0D0
:10274800A5FE0220002100F0A1FE79E07A68404B46
:102758009A4208D10420012100F098FE04200021AB
:1027680000F094FE6CE07A683A4B9A4208D108204F
:10277800012100F08BFE0820002100F087FE5FE0B9
:102788007A68354B9A4208D11020012100F07EFE6C
:102798001020002100F07AFE52E07A682F4B9A420E
:1027A80008D12020012100F071FE2020002100F036
:1027B8006DFE45E07A682A4B9A4208D140200121F3
:1027C80000F064FE4020002100F060FE38E07A68E6
:1027D800244B9A4208D18020012100F057FE802026
:1027E800002100F053FE2BE07A681F4B9A420AD171
:1027F8004FF48070012100F049FE4FF480700021F1
:1028080000F044FE1CE07A68184B9A420AD14FF453
:102818000070012100F03AFE4FF40070002100F032
:1028280035FE0DE07A68124B9A4209D14FF4806068
:10283800012100F02BFE4FF48060002100F026FEFD
:102848000837BD4680BD00BF0000024000040240BA
:1028580000080240000C0240001002400014024030
:1028680000180240001C02400020024000240240E0
:102878000028024080B487B000AF78603960002338
:102888007B6100233B610023FB6000237B6176E0D2
:102898007B69012202FA03F33B613B681A683B69D2
:1028A8001340FB60FA683B699A4265D17B681A68F5
:1028B8007B695B00032101FA03F3DB431A407B6861
:1028C8001A607B681A683B681B7919467B695B004C
:1028D80001FA03F31A437B681A603B681B79012BE2
:1028E80003D03B681B79022B2ED17B689A687B69E1
:1028F8005B00032101FA03F3DB431A407B689A600B
:102908007B689A683B685B7919467B695B0001FACA
:1029180003F31A437B689A607B685A687B699BB2A9
:10292800012101FA03F3DB431A407B685A607B6894
:102938005A683B689B7919467B699BB201FA03F395
:102948009BB21A437B685A607B68DA687B699BB2E2
:102958005B00032101FA03F3DB431A407B68DA606A
:102968007B68DA683B68DB7919467B695B0001FAAA
:1029780003F31A437B68DA607B6901337B617B6907
:102988000F2B85D91C37BD465DF8047B704700BF07
:1029980080B483B000AF78607B684FF6FF721A602E
:1029A8007B6800221A717B6800225A717B680022BA
:1029B8009A717B680022DA710C37BD465DF8047B9A
:1029C800704700BF80B485B000AF78600B467B804D
:1029D8004FF48033FB607A88FB681343FB60FA6826
:1029E8007B68DA617A887B68DA61FA687B68DA6121
:1029F8007B68DB69FB607B68DB69FB601437BD467D
:102A08005DF8047B704700BF80B485B000AF786084
:102A18000B467B800023FB737B681A697B88134015
:102A2800002B02D00123FB7301E00023FB73FB7B27
:102A380018461437BD465DF8047B704780B483B0F0
:102A480000AF78607B681B699BB218460C37BD469F
:102A58005DF8047B704700BF80B485B000AF786034
:102A68000B467B800023FB737B685A697B88134085
:102A7800002B02D00123FB7301E00023FB73FB7BD7
:102A880018461437BD465DF8047B704780B483B0A0
:102A980000AF78607B685B699BB218460C37BD460F
:102AA8005DF8047B704700BF80B483B000AF7860E6
:102AB8000B467B807B687A881A830C37BD465DF8A5
:102AC800047B704780B483B000AF78600B467B808E
:102AD8007B687A885A830C37BD465DF8047B70475B
:102AE80080B483B000AF786013460A467A807B7062
:102AF8007B78002B03D07B687A881A8302E07B6896
:102B08007A885A830C37BD465DF8047B704700BF4E
:102B180080B483B000AF78600B467B807A887B688E
:102B28005A610C37BD465DF8047B704780B483B0AA
:102B380000AF78600B467B807B685A697B885A4077
:102B48007B685A610C37BD465DF8047B704700BF4F
:102B580080B485B000AF786013460A467A807B70EF
:102B68000023FB600023BB607A787B8803F00703AF
:102B78009B0002FA03F3FB607B88DB089BB21A46D2
:102B88007B88DB089BB219467B68083153F8211013
:102B98007B8803F007039B000F2000FA03F3DB4355
:102BA80019407B68083243F822107B88DB089BB207
:102BB8001A467B68083253F82220FB681343BB602F
:102BC8007B88DB089BB21A467B680832B96843F8F1
:102BD80022101437BD465DF8047B704780B400AFFF
:102BE800164B164A126842F001021A60134B002273
:102BF8009A60124A114B1B6823F0A85323F4102340
:102C080013600E4B0E4A5A600C4B0E4AC3F88420D0
:102C18000A4B0D4AC3F88820084B084A126822F468
:102C280080221A60054B0022DA60044B0022C3F8A8
:102C38008C20BD465DF8047B704700BF0038024019
:102C480010300024003000200030002480B483B00D
:102C580000AF0346FB71054B00221A70034BFA794B
:102C68001A700C37BD465DF8047B70470238024085
:102C780080B582B000AF00233B600023FB710023C6
:102C8800BB71312000F06EFD0346BB713B68013318
:102C98003B603B68B3F5A04F02D0BB79002BF0D066
:102CA800312000F05FFD0346002B02D00123FB71A9
:102CB80001E00023FB71FB7918460837BD4680BD4B
:102CC80080B485B000AF0346FB710023FB600A4B5C
:102CD8001B68FB60FB6823F0F803FB60FB79DB00F3
:102CE800FA681343FB60044BFA681A601437BD4650
:102CF8005DF8047B704700BF0038024080B483B0A1
:102D080000AF0346FB71044BFA791A600C37BD46D5
:102D18005DF8047B704700BF0000474280B483B071
:102D280000AF0346FB710C4B00221A700A4B0022BD
:102D38001A70FB79012B02D0042B04D007E0064B54
:102D480001221A7003E0044B05221A7000BF0C37E9
:102D5800BD465DF8047B70477038024080B483B08C
:102D680000AF0346FB71044BFA791A600C37BD4675
:102D78005DF8047B704700BF800E474280B485B081
:102D880000AFF860B9607A603B600A4B7A689101DD
:102D9800BA6811433A685208013A12041143FA68B2
:102DA8001143BA6912060A435A601437BD465DF8E2
:102DB800047B70470038024080B483B000AF0346FC
:102DC800FB71044BFA791A600C37BD465DF8047B39
:102DD800704700BF6000474280B483B000AF78609E
:102DE8003960064B7A6891013A6812070A43C3F8BA
:102DF80084200C37BD465DF8047B704700380240DC
:102E080080B483B000AF0346FB71044BFA791A60B3
:102E18000C37BD465DF8047B704700BF6800474229
:102E280080B485B000AFF860B9607A60074BFA6883
:102E38009101BA68120611437A6812070A43C3F867
:102E480088201437BD465DF8047B7047003802407F
:102E580080B483B000AF0346FB71044BFA791A6063
:102E68000C37BD465DF8047B704700BF70004742D1
:102E780080B483B000AF0346FB71044BFA791A6043
:102E88000C37BD465DF8047B704700BF4C004742D5
:102E980080B485B000AF786039600023FB600A4BCE
:102EA8009B68FB60FB6823F0EC63FB607A683B6817
:102EB8001343FA681343FB60034BFA689A601437AC
:102EC800BD465DF8047B70470038024080B485B089
:102ED80000AF786039600023FB600A4B9B68FB6099
:102EE800FB6823F07843FB607A683B681343FA6811
:102EF8001343FB60034BFA689A601437BD465DF8CC
:102F0800047B70470038024080B485B000AF786019
:102F18000023FB60094B9B68FB60FB6823F00303FD
:102F2800FB60FA687B681343FB60044BFA689A609D
:102F38001437BD465DF8047B704700BF0038024077
:102F480080B400AF054B9B68DBB203F00C03DBB227
:102F58001846BD465DF8047B704700BF0038024044
:102F680080B485B000AF78600023FB60094B9B6894
:102F7800FB60FB6823F0F003FB60FA687B6813438F
:102F8800FB60044BFA689A601437BD465DF8047B11
:102F9800704700BF0038024080B485B000AF786049
:102FA8000023FB60094B9B68FB60FB6823F4E0533C
:102FB800FB60FA687B681343FB60044BFA689A600D
:102FC8001437BD465DF8047B704700BF00380240E7
:102FD80080B485B000AF78600023FB60094B9B6824
:102FE800FB60FB6823F46043FB607B68DB00FA68E6
:102FF8001343FB60034BFA689A601437BD465DF8CB
:10300800047B70470038024080B489B000AF786014
:103018000023BB6100237B610023FB6102233B612A
:103028000023FB600223BB60484B9B6803F00C0342
:10303800BB61BB69042B07D0082B09D0002B3FD1FB
:103048007B68434A1A603FE07B68424A1A603BE06B
:103058003E4B5B6803F480039B0DFB603B4B5B6856
:1030680003F03F03BB60FB68002B0DD0394ABB68F7
:10307800B2FBF3F2354B596847F6C0730B409B0916
:1030880003FB02F3FB610CE0314ABB68B2FBF3F2CD
:103098002E4B596847F6C0730B409B0903FB02F39C
:1030A800FB612A4B5B6803F440331B0C01335B0064
:1030B8003B61FA693B69B2FBF3F27B681A6003E093
:1030C8007B68234A1A6000BF204B9B6803F0F0031B
:1030D800BB61BB691B09BB611F4ABB6913441B78F1
:1030E800DBB27B617B681A687B69DA407B685A606F
:1030F800164B9B6803F4E053BB61BB699B0ABB6139
:10310800154ABB6913441B78DBB27B617B685A683C
:103118007B69DA407B689A600C4B9B6803F46043D8
:10312800BB61BB695B0BBB610B4ABB6913441B7872
:10313800DBB27B617B685A687B69DA407B68DA605E
:103148002437BD465DF8047B704700BF0038024055
:103158000024F40000127A003400002080B485B006
:1031680000AF78600023FB607B6803F44073B3F51D
:10317800407F11D10F4B9B68FB60FB6823F4F81369
:10318800FB607B6823F0704323F44073FA681343B1
:10319800FB60084BFA689A60064B064A116F7A681A
:1031A800C2F30B020A431A671437BD465DF8047B65
:1031B800704700BF0038024080B483B000AF0346B8
:1031C800FB71044BFA791A600C37BD465DF8047B35
:1031D800704700BF3C0E474280B483B000AF03463F
:1031E800FB71044BFA791A600C37BD465DF8047B15
:1031F800704700BF400E474280B483B000AF78608C
:10320800034B7A681A600C37BD465DF8047B70473B
:103218005C01474280B485B000AF78600023FB6052
:103228000A4BD3F88C30FB60FB6823F44013FB6037
:10323800FA687B681343FB60044BFA68C3F88C2078
:103248001437BD465DF8047B704700BF0038024064
:1032580080B485B000AF78600023FB600A4BD3F8D8
:103268008C30FB60FB6823F44003FB60FA687B68E2
:103278001343FB60044BFA68C3F88C201437BD462F
:103288005DF8047B704700BF0038024080B485B009
:1032980000AF78600023FB600A4BD3F88C30FB60EA
:1032A800FB6823F01F03FB607B68013BFA6813434C
:1032B800FB60044BFA68C3F88C201437BD465DF8F0
:1032C800047B70470038024080B485B000AF786056
:1032D8000023FB600B4BD3F88C30FB60FB6823F4B6
:1032E800F853FB607B68013B1B02FA681343FB60E1
:1032F800044BFA68C3F88C201437BD465DF8047B8C
:10330800704700BF0038024080B485B000AF7860D5
:103318000023FB600A4BD3F88C30FB60FB6823F476
:103328004033FB60FA687B681343FB60044BFA6820
:10333800C3F88C201437BD465DF8047B704700BF86
:103348000038024080B483B000AF7860034B7A68DD
:103358001A600C37BD465DF8047B7047E0114742A0
:1033680080B483B000AF78600B46FB70FB78002B0D
:1033780006D0094B084A116B7A680A431A6306E0BB
:10338800054B054A116B7A68D2430A401A630C3719
:10339800BD465DF8047B70470038024080B483B0B6
:1033A80000AF78600B46FB70FB78002B06D0094B0A
:1033B800084A516B7A680A435A6306E0054B054A86
:1033C800516B7A68D2430A405A630C37BD465DF8A0
:1033D800047B70470038024080B483B000AF786047
:1033E8000B46FB70FB78002B06D0094B084A916B03
:1033F8007A680A439A6306E0054B054A916B7A6836
:10340800D2430A409A630C37BD465DF8047B704787
:103418000038024080B483B000AF78600B46FB7080
:10342800FB78002B06D0094B084A116C7A680A43CE
:103438001A6406E0054B054A116C7A68D2430A40C3
:103448001A640C37BD465DF8047B704700380240AB
:1034580080B483B000AF78600B46FB70FB78002B1C
:1034680006D0094B084A516C7A680A435A6406E048
:10347800054B054A516C7A68D2430A405A640C37A6
:10348800BD465DF8047B70470038024080B483B0C5
:1034980000AF78600B46FB70FB78002B06D0094B19
:1034A800084A11697A680A431A6106E0054B054A19
:1034B80011697A68D2430A401A610C37BD465DF833
:1034C800047B70470038024080B483B000AF786056
:1034D8000B46FB70FB78002B06D0094B084A516954
:1034E8007A680A435A6106E0054B054A51697A68C9
:1034F800D2430A405A610C37BD465DF8047B7047D9
:103508000038024080B483B000AF78600B46FB708F
:10351800FB78002B06D0094B084A91697A680A4360
:103528009A6106E0054B054A91697A68D2430A40D8
:103538009A610C37BD465DF8047B7047003802403D
:1035480080B483B000AF78600B46FB70FB78002B2B
:1035580006D0094B084A116A7A680A431A6206E0DB
:10356800054B054A116A7A68D2430A401A620C3739
:10357800BD465DF8047B70470038024080B483B0D4
:1035880000AF78600B46FB70FB78002B06D0094B28
:10359800084A516A7A680A435A6206E0054B054AA6
:1035A800516A7A68D2430A405A620C37BD465DF8C0
:1035B800047B70470038024080B483B000AF786065
:1035C8000B46FB70FB78002B06D0094B084A116D9F
:1035D8007A680A431A6506E0054B054A116D7A6850
:1035E800D2430A401A650C37BD465DF8047B704724
:1035F8000038024080B483B000AF78600B46FB709F
:10360800FB78002B06D0094B084A516D7A680A43AB
:103618005A6506E0054B054A516D7A68D2430A405F
:103628005A650C37BD465DF8047B70470038024088
:1036380080B483B000AF78600B46FB70FB78002B3A
:1036480006D0094B084A916D7A680A439A6506E0E4
:10365800054B054A916D7A68D2430A409A650C3742
:10366800BD465DF8047B70470038024080B483B0E3
:1036780000AF78600B46FB70FB78002B06D0094B37
:10368800084A116E7A680A431A6606E0054B054A2D
:10369800116E7A68D2430A401A660C37BD465DF847
:1036A800047B70470038024080B483B000AF786074
:1036B8000B46FB70FB78002B06D0094B084A516E6D
:1036C8007A680A435A6606E0054B054A516E7A68DD
:1036D800D2430A405A660C37BD465DF8047B7047F2
:1036E8000038024080B483B000AF0346FB71FB7919
:1036F800012B06D1084B084A126F42F008021A67DC
:1037080005E0054B044A126F22F008021A670C37CD
:10371800BD465DF8047B70470038024080B483B032
:1037280000AF02460B46FA71BB71BB79002B08D07B
:103738000B4B0B4A1278D1B2FA790A43D2B21A70FB
:1037480009E0074B064A1278D1B2FA79D243D2B2CD
:103758000A40D2B21A700C37BD465DF8047B704738
:103768000D38024080B487B000AF0346FB710023D8
:10377800FB6000237B610023FB74FB795B09DBB2F0
:10378800FB60FB68012B03D1124B1B687B6109E0CE
:10379800FB68022B03D10F4B1B6F7B6102E00D4BC3
:1037A8005B6F7B61FB7903F01F03FB60FB687A6941
:1037B80022FA03F303F00103002B02D00123FB7468
:1037C80001E00023FB74FB7C18461C37BD465DF8FE
:1037D800047B70470038024080B400AF044B044AB1
:1037E800526F42F080725A67BD465DF8047B70479D
:1037F8000038024080B485B000AF0346FB71002357
:10380800FB73094BDA68FB791340002B02D00123C4
:10381800FB7301E00023FB73FB7B18461437BD469E
:103828005DF8047B704700BF0038024080B483B065
:1038380000AF0346FB71044BFA791A700C37BD468A
:103848005DF8047B704700BF0E38024080B582B037
:1038580000AF78607A682D4B9A420AD14FF48050B5
:103868000121FFF78BFE4FF480500021FFF786FE01
:1038780049E07A68264B9A420AD14FF480400121E8
:10388800FFF75EFE4FF480400021FFF759FE3AE053
:103898007A68204B9A420AD14FF400400121FFF781
:1038A8004FFE4FF400400021FFF74AFE2BE07A68F4
:1038B800194B9A420AD14FF400500121FFF75EFEDE
:1038C8004FF400500021FFF759FE1CE07A68134BB3
:1038D8009A420AD14FF480100121FFF74FFE4FF4AE
:1038E80080100021FFF74AFE0DE07A680C4B9A42DF
:1038F80009D14FF400100121FFF740FE4FF40010EA
:103908000021FFF73BFE0837BD4680BD003001406F
:1039180000380040003C00400034014000500140A5
:103928000054014080B485B000AF7860396000234E
:10393800FB817B681B88FB81FB8903F44153FB8176
:103948003B681A883B685B8813439AB23B689B883C
:1039580013439AB23B68DB8813439AB23B681B89CE
:1039680013439AB23B685B8913439AB23B689B89BD
:1039780013439AB23B68DB8913439AB2FB8913431A
:10398800FB817B68FA891A807B689B8B9BB223F446
:1039980000639AB27B689A833B681A8A7B681A82AA
:1039A8001437BD465DF8047B704700BF80B48BB008
:1039B80000AF786039600023FB820223FB84002378
:1039C800BB8401237B840023FB610023BB610023AC
:1039D8003B610023FB600023BB607B689B8B9BB231
:1039E80023F47B6323F00F039AB27B689A837B6886
:1039F80002221A847B689B8BFB823B689B68022BA4
:103A080004D10023BB840223FB8483E03B689B88AA
:103A1800002B02D101237B8401E002237B84554BD8
:103A28009B6803F40003002B05D0524B514A92685F
:103A380022F400029A604F4BD3F8842047F6C073F3
:103A480013409B09C3F30803FB604A4BD3F8843047
:103A580003F0E0431B0F03F00703BB60454B5B68B3
:103A680003F03F033B61434B5B6803F48003002B87
:103A78000BD0414A3B69B2FBF3F3FA6802FB03F24D
:103A8800BB68B2FBF3F3BB610AE03C4A3B69B2FB9B
:103A9800F3F3FA6802FB03F2BB68B2FBF3F3BB6112
:103AA8003B68DB88B3F5007F0FD1BB691A0A134660
:103AB8009B0013445B001A463B689B68B2FBF3F318
:103AC8009BB205339BB2FB6111E07B8C5B01BA6949
:103AD800B2FBF3F213469B0013445B001A463B68A3
:103AE8009B68B2FBF3F39BB205339BB2FB61FA69A7
:103AF800234BA3FB0213DB08FB61FB699BB203F0BA
:103B08000103BB84BB8CFA69D31A5B08FB84BB8CAA
:103B18001B02BB84FB8C012B02D9FB8CFF2B03D926
:103B28000223FB840023BB843B68DA88BB8C1343E5
:103B38009AB2FB8C13439AB27B681A843B681A8842
:103B48003B6859883B6898883B689B8903439BB2CC
:103B58000B439BB213439AB2FB8A13439BB243F4C1
:103B68000063FB827B68FA8A9A832C37BD465DF82E
:103B7800047B70470038024000127A000024F400E9
:103B8800CDCCCCCC80B483B000AF78607B68002209
:103B98001A807B6800225A807B6800229A807B68A2
:103BA8000022DA807B6800221A817B6800225A8111
:103BB8007B6800229A817B680022DA817B68072271
:103BC8001A820C37BD465DF8047B704780B483B019
:103BD80000AF78607B6800221A807B6800225A80D8
:103BE8007B6800229A807B680022DA807B68022248
:103BF8009A607B6800229A810C37BD465DF8047B89
:103C0800704700BF80B483B000AF78600B46FB708C
:103C1800FB78002B08D07B681B889BB243F04003DD
:103C28009AB27B681A8007E07B681B889BB223F0F6
:103C380040039AB27B681A800C37BD465DF8047B56
:103C4800704700BF80B483B000AF78600B46FB704C
:103C5800FB78002B08D07B689B8B9BB243F4806376
:103C68009AB27B689A8307E07B689B8B9BB223F4AC
:103C780080639AB27B689A830C37BD465DF8047BF3
:103C8800704700BF80B483B000AF78600B467B807C
:103C98007B681B889BB223F400639AB27B681A8006
:103CA8007B681B889AB27B8813439AB27B681A8018
:103CB8000C37BD465DF8047B704700BF80B483B005
:103CC80000AF78600B467B807B88B3F5804F08D1C6
:103CD8007B681B889BB243F480439AB27B681A8046
:103CE80007E07B681B889BB223F480439AB27B6809
:103CF8001A800C37BD465DF8047B704780B483B0EA
:103D080000AF78600B467B807A884FF6FF639A4253
:103D180008D07B681B889BB243F480739AB27B6897
:103D28001A8007E07B681B889BB223F480739AB2E1
:103D38007B681A800C37BD465DF8047B704700BF6E
:103D480080B483B000AF78600B46FB70FB78002B23
:103D580008D07B689B889BB243F004039AB27B68C7
:103D68009A8007E07B689B889BB223F004039AB291
:103D78007B689A800C37BD465DF8047B704700BFAE
:103D880080B483B000AF78600B46FB70FB78002BE3
:103D980008D07B689B889BB243F010039AB27B687B
:103DA8009A8007E07B689B889BB223F010039AB245
:103DB8007B689A800C37BD465DF8047B704700BF6E
:103DC80080B485B000AF786039600023BB810023E0
:103DD800FB817B689B8B9BB223F47B6323F00F03EF
:103DE8009AB27B689A837B6802221A847B689B8BD1
:103DF800BB813B681B88B3F5007F03D03B681B88F9
:103E0800002B03D14FF48073FB810BE03B681B88C8
:103E1800B3F5407F04D03B681B88B3F5807F01D1A0
:103E28000023FB813B685A883B6899883B689B89DB
:103E38000B439BB213439AB2FB8913439AB2BB89D3
:103E480013439BB243F40063BB817B68BA899A83AE
:103E58001437BD465DF8047B704700BF80B483B05B
:103E680000AF78607B689B899BB218460C37BD46CB
:103E78005DF8047B704700BF80B483B000AF786002
:103E88000B467B807B687A889A810C37BD465DF843
:103E9800047B704780B483B000AF78600B46FB703A
:103EA800FB78002B08D07B681B889BB243F4005337
:103EB8009AB27B681A8007E07B681B889BB223F460
:103EC80000539AB27B681A800C37BD465DF8047BB4
:103ED800704700BF80B483B000AF78607B681B88F0
:103EE8009BB243F480539AB27B681A800C37BD4664
:103EF8005DF8047B704700BF80B485B000AF786080
:103F08000B46FB700023FB81FB78012B03D07B68F9
:103F18001B8BFB8102E07B689B8AFB81FB8918462F
:103F28001437BD465DF8047B704700BF80B483B08A
:103F380000AF78607B681B8A9BB218460C37BD4679
:103F48005DF8047B704700BF80B483B000AF786031
:103F580013460A467A807B707B78002B08D07B68F2
:103F68009B889AB27B8813439AB27B689A8009E04F
:103F78007B689B889AB27B88DB439BB213409AB2DA
:103F88007B689A800C37BD465DF8047B704700BF9C
:103F980080B485B000AF786013460A46FA70BB70EB
:103FA8000023FB810023BB81FB781B09DBB2FB816B
:103FB800FB89012202FA03F3BB81BB78002B08D0EE
:103FC8007B689B889AB2BB8913439AB27B689A80B4
:103FD80009E07B689B889AB2BB89DB439BB213409C
:103FE8009AB27B689A801437BD465DF8047B7047A7
:103FF80080B485B000AF78600B467B800023FB73EC
:104008007B681B899AB27B8813409BB2002B02D035
:104018000123FB7301E00023FB73FB7B1846143775
:10402800BD465DF8047B704780B483B000AF78600C
:104038000B467B807B88DB439AB27B681A810C37FE
:10404800BD465DF8047B704780B485B000AF7860EA
:104058000B46FB700023FB730023BB8100237B818D
:1040680000233B81FB7803F00F03012202FA03F3DC
:10407800BB81FB781B09DBB27B817B89012202FAB9
:1040880003F37B817B689B889AB27B8913403B81D1
:104098007B681B899AB2BB8913409BB2002B05D061
:1040A8003B89002B02D00123FB7301E00023FB7343
:1040B800FB7B18461437BD465DF8047B704700BF8C
:1040C80080B485B000AF78600B46FB700023FB819D
:1040D800FB7803F00F03012202FA03F3FB81FB894B
:1040E800DB439AB27B681A811437BD465DF8047BBE
:1040F800704700BF844641EA000313F003036DD103
:10410800403A41D351F8043B40F8043B51F8043B92
:1041180040F8043B51F8043B40F8043B51F8043B99
:1041280040F8043B51F8043B40F8043B51F8043B89
:1041380040F8043B51F8043B40F8043B51F8043B79
:1041480040F8043B51F8043B40F8043B51F8043B69
:1041580040F8043B51F8043B40F8043B51F8043B59
:1041680040F8043B51F8043B40F8043B51F8043B49
:1041780040F8043B51F8043B40F8043B51F8043B39
:1041880040F8043B403ABDD2303211D351F8043BD9
:1041980040F8043B51F8043B40F8043B51F8043B19
:1041A80040F8043B51F8043B40F8043B103AEDD288
:1041B8000C3205D351F8043B40F8043B043AF9D2D9
:1041C800043208D0D2071CBF11F8013B00F8013BAC
:1041D80001D30B8803806046704700BF082A13D3B9
:1041E8008B078DD010F003038AD0C3F10403D21AD1
:1041F800DB071CBF11F8013B00F8013B80D331F805
:10420800023B20F8023B7BE7043AD9D3013A11F884
:10421800013B00F8013BF9D20B7803704B784370EF
:104228008B78837060467047002103E00B4B5B5826
:10423800435004310A480B4B42189A42F6D30A4AB3
:1042480002E0002342F8043B084B9A42F9D3FCF7FA
:1042580097F800F03DF8FCF73DF870476446000811
:10426800000000207404002078040020B8240020F6
:10427800FEE70000014600200246034600F09AB817
:1042880008B50021044600F0F3F8044B1868C36B26
:1042980003B19847204600F0D7F900BF3046000820
:1042A80038B5094D094C641BA41018BF05EB8405EB
:1042B80005D0013C55F8043D9847002CF9D1BDE8DC
:1042C800384000F0BBB900BF6046000864460008EB
:1042D80070B50F4E0F4D761BB61007D0043D002465
:1042E800013455F8043F9847A642F9D10A4E0B4DC0
:1042F800761B00F09DF9B61008D0043D0024013467
:1043080055F8043F9847A642F9D170BD70BD00BF6B
:1043180058460008584600086046000858460008F5
:10432800F0B4840743D0541E002A3ED0CDB20346D1
:1043380003E0621E002C38D0144603F8015B9A078C
:10434800F7D1032C2AD9CDB245EA05250F2C45EA29
:10435800054515D9A4F110073F0903F1100606EB2E
:1043680007161A46156055609560D5601032B2423E
:10437800F8D104F00F040137032C03EB07130DD910
:104388001E462246043A032A46F8045BFAD8221F3E
:1043980022F003020432134404F003042CB1C9B21E
:1043A8001C4403F8011BA342FBD1F0BC7047144620
:1043B8000346C6E7F0B5274C2668D6F8484185B0CD
:1043C8000746002C41D065681F2D1EDD224818B90C
:1043D8004FF0FF3005B0F0BD4FF4C8700391029262
:1043E8000193AFF300800399029A019B04460028C9
:1043F800EED0D6F848512560002060600546C6F822
:104408004841C4F88801C4F88C013FB9AB1C0020AE
:104418000135656044F8231005B0F0BD04EB850054
:104428004FF0010CC0F88820D4F888610CFA05F226
:104438001643022FC4F88861C0F80831E6D1D4F8D1
:104448008C311A43C4F88C21E0E706F5A674C6F847
:104458004841B8E73046000800000000024B13B19D
:104468000248FFF707BF704700000000A942000894
:104478002DE9F04F384B1B6885B003F5A472019302
:1044880002900F460392019BD3F84881B8F1000FC0
:104498001CD0DDF80CB04FF00109DA46D8F804302A
:1044A8005C1E11D408F188059E1C05EB830508EBFA
:1044B800860677B1EB6FBB420BD0013C631CA5F1BC
:1044C8000405A6F10406F4D1244A7ABB05B0BDE878
:1044D800F08FD8F8042056F8043C013AA24216BFDF
:1044E8000022C8F8044046F8042C002BE5D0D8F880
:1044F8008811D8F804B009FA04F20A4210D0D8F8A2
:104508008C110A420ED1029855F8041C9847D8F825
:1045180004305B45B7D1DAF800304345CDD0B2E777
:104528009847F4E755F8040C9847F0E7D8F80430B2
:104538006BB9D8F8003063B14046CAF80030AFF321
:104548000080DAF80080B8F1000FA7D1BEE7D8F8EC
:104558000030C2469846F6E73046000800000000E2
:10456800485454502F312E3120343034204E4F547B
:1045780020464F554E440D0A436F6E74656E742D78
:10458800547970653A20746578742F68746D6C0D71
:104598000A436F6E74656E742D4C656E6774683A65
:1045A800203130300D0A0D0A3C48544D4C3E3C54E5
:1045B80049544C453E504147494E41204E4F2045B5
:1045C8004E434F4E54524144413C2F5449544C455C
:1045D8003E3C424F44593E3C48313E4552524F5270
:1045E8002034303420504147494E41204E4F204519
:1045F8004E434F4E54524144413C2F48313E3C2F8C
:10460800424F44593E3C2F48544D4C3E0000000058
:104618007372632F647276456E6332386A36302E51
:104628006300000043000000480000200000000074
:10463800F8B500BFF8BC08BC9E467047F8B500BF87
:08464800F8BC08BC9E46704757
:08465000E4BBFF7F0100000044
:0846580065440008010200089E
:04466000D901000874
:1046640000000000007A030A0000000000000000BF
:10467400010203040607080900112233445500000F
:10468400FFFFFFFFFFFF00000A00001FFFFFFF0006
:104694000A000001000000000102030401020304F7
:1046A4000607080900000000000000003403002091
:1046B4009C0300200404002000000000000000000F
:1046C40000000000000000000000000000000000E6
:1046D4000000000000000000000000002C4600085C
:1046E40000000000000000000000000000000000C6
:1046F40000000000000000000000000000000000B6
:1047040000000000000000000000000000000000A5
:104714000000000000000000000000000000000095
:104724000000000000000000000000000000000085
:104734000000000000000000000000000000000075
:104744000000000000000000000000000000000065
:1047540001000000000000000E33CDAB34126DE602
:10476400ECDE05000B00000000000000000000006B
:104774000000000000000000000000000000000035
:104784000000000000000000000000000000000025
:104794000000000000000000000000000000000015
:1047A4000000000000000000000000000000000005
:044AD4004800002076
:044AD80000000000DA
:04000005080042317C
:00000001FF
